:100000000C945D000C9485000C9485000C94850084
:100010000C9485000C9485000C9485000C9485004C
:100020000C9485000C9485000C9485000C9485003C
:100030000C9485000C9485000C9485000C9485002C
:100040000C949A010C9485000C941F020C94E4010A
:100050000C9485000C9485000C9485000C9485000C
:100060000C9485000C94850000000007000201003C
:100070000003040600000000000000000000000073
:10008000250028002B0000000000240027002A0083
:10009000040404040404040402020202020203032E
:1000A0000303030301020408102040800102040836
:1000B0001020010204081020590211241FBECFEFA6
:1000C000D8E0DEBFCDBF11E0A0E0B1E0EAEDF6E0A0
:1000D00002C005900D92A031B107D9F721E0A0E14F
:1000E000B1E001C01D92A33CB207E1F710E0CDE5FD
:1000F000D0E004C02197FE010E946503CC35D107F2
:10010000C9F70E9494020C9462030C9400000895B5
:10011000CF92DF92EF92FF920F931F93CF93DF93D3
:100120006C01EB017B01E40EF51E00E010E0CE1542
:10013000DF0561F06991D601ED91FC910190F081AC
:10014000E02DC6010995080F191FF1CFC801DF91F5
:10015000CF911F910F91FF90EF90DF90CF90089576
:100160000F931F93CF93DF93FC01A685B7858D0175
:10017000005C1F4FE8018881998101968F73992750
:10018000AD014E5B5F4FEA0128813981281739079D
:10019000D1F3E80128813981A20FB31F6C93A685A2
:1001A000B785A05CBF4F11969C938E93A689B789A3
:1001B0002C9181E090E0078C02C0880F991F0A946F
:1001C000E2F7822B8C9381E081A30488F589E02DEE
:1001D00080818064808381E090E0DF91CF911F91E6
:1001E0000F910895FC0181A1882329F0A489B58984
:1001F0008C9186FFFBCF11A20895FC01A485B585E3
:10020000FD01E05CFF4F2081318132968081918138
:100210002817390779F080819181A80FB91F8C9137
:10022000208131812F5F3F4F2F733327318320830C
:1002300090E008958FEF9FEF0895DC011C96ED91FB
:10024000FC911D97DF01A05CBF4F2D913C91119750
:1002500012968D919C9111972817390739F08D913D
:100260009C91E80FF91F808190E008958FEF9FEF38
:100270000895FC0124853585F901E05CFF4F8081FC
:100280009181329620813181821B930B8F73992744
:10029000089588E991E00C94390190E0FC01E85957
:1002A000FF4F2491FC01EC55FF4F3491FC01E057C6
:1002B000FF4FE491EE2309F43CC0222339F12330AF
:1002C00091F038F42130A9F0223001F584B58F7D0A
:1002D00012C0263091F02730A1F02430B9F480917B
:1002E00080008F7D03C0809180008F778093800095
:1002F0000DC084B58F7784BD09C08091B0008F7721
:1003000003C08091B0008F7D8093B000F0E0EE0FCD
:10031000FF1FE458FF4FA591B4919FB7F894611166
:1003200004C08C913095382302C0EC913E2B3C9355
:100330009FBF08951F920F920FB60F9211242F9313
:100340003F938F939F93AF93BF938091BF01909101
:10035000C001A091C101B091C2013091BE0123E062
:10036000230F2D3720F40196A11DB11D05C026E8ED
:10037000230F0296A11DB11D2093BE018093BF01E2
:100380009093C001A093C101B093C2018091BA01C2
:100390009091BB01A091BC01B091BD010196A11D3E
:1003A000B11D8093BA019093BB01A093BC01B0939F
:1003B000BD01BF91AF919F918F913F912F910F9070
:1003C0000FBE0F901F9018951F920F920FB60F92AD
:1003D00011242F933F938F939F93EF93FF9320913B
:1003E0005001309151018091520190915301281791
:1003F000390731F48091C1008F7D8093C10014C012
:10040000E0915201F0915301E05FFE4F2081809115
:1004100052019091530101968F7399279093530144
:10042000809352012093C600FF91EF919F918F918D
:100430003F912F910F900FBE0F901F9018951F9214
:100440000F920FB60F9211242F934F935F938F93B8
:100450009F93EF93FF938091C00082FD1CC0209179
:10046000C600809194019091950140919601509120
:10047000970101968F7399274817590771F0E091FA
:100480009401F0919501EC5AFE4F208390939501D1
:100490008093940102C08091C600FF91EF919F91DB
:1004A0008F915F914F912F910F900FBE0F901F90E2
:1004B0001895E8E9F1E01382128288EE93E0A0E05B
:1004C000B0E084839583A683B78384E091E0918331
:1004D000808384E591E09587848780E191E0978728
:1004E000868785EC90E0918B808B84EC90E0938BF9
:1004F000828B80EC90E0958B848B81EC90E0978BE5
:10050000868B82EC90E0918F808F86EC90E0938FC9
:10051000828F84E0848F83E0858F87E0868F85E0FB
:10052000878F81E080A30895789484B5826084BD2C
:1005300084B5816084BD85B5826085BD85B58160E7
:1005400085BD80916E00816080936E001092810065
:100550008091810082608093810080918100816020
:1005600080938100809180008160809380008091E1
:10057000B10084608093B1008091B000816080936D
:10058000B00080917A00846080937A0080917A0034
:10059000826080937A0080917A00816080937A00F3
:1005A00080917A00806880937A001092C100E7EA17
:1005B000F0E02491E3E9F0E08491882399F090E061
:1005C000880F991FFC01EA57FF4FA591B491FC01D8
:1005D000E458FF4F859194918FB7F894EC91E22BFA
:1005E000EC938FBFE091AC01F091AD0181E090E020
:1005F0009C010090B80102C0220F331F0A94E2F759
:100600002083E091A801F091A9011082E091AA0154
:10061000F091AB012FEC20831092B901E091AE0173
:10062000F091AF0140819C010090B40102C0220F03
:10063000331F0A94E2F7242B2083E091AE01F0915E
:10064000AF0140819C010090B50102C0220F331F11
:100650000A94E2F7242B2083E091AE01F091AF01E0
:1006600040819C010090B60102C0220F331F0A9402
:10067000E2F7242B2083E091AE01F091AF012081BD
:100680000090B70102C0880F991F0A94E2F7809585
:100690008223808388E991E00E94390118161906A7
:1006A00074F488E991E00E94FD00813311F461E067
:1006B00003C0803321F460E083E00E944D010E947A
:1006C0004901E8CFF8940C946B03EE0FFF1F0590DF
:0A06D000F491E02D0994F894FFCF97
:1006DA0000000000B00088003901FD001D01F20091
:00000001FF
