:100000000C9453000C947B000C947B000C947B00AC
:100010000C947B000C947B000C947B000C947B0074
:100020000C947B000C947B000C947B000C947B0064
:100030000C947B000C947B000C947B000C947B0054
:100040000C9443010C947B000C94C8010C948D011A
:100050000C947B000C947B000C947B000C947B0034
:100060000C947B000C947B0000000000250028000D
:100070002B0000000000240027002A0004040404D0
:100080000404040402020202020203030303030342
:10009000010204081020408001020408102001021F
:1000A00004081020020211241FBECFEFD8E0DEBFEB
:1000B000CDBF11E0A0E0B1E0E8E5F6E002C00590B8
:1000C0000D92A031B107D9F721E0A0E1B1E001C064
:1000D0001D92A73CB207E1F710E0C3E5D0E004C0F1
:1000E0002197FE010E942403C235D107C9F70E945F
:1000F0003D020C9421030C9400000895CF92DF92EE
:10010000EF92FF920F931F93CF93DF936C01EB015C
:100110007B01E40EF51E00E010E0CE15DF0561F076
:100120006991D601ED91FC910190F081E02DC6011D
:100130000995080F191FF1CFC801DF91CF911F91C9
:100140000F91FF90EF90DF90CF9008950F931F9342
:10015000CF93DF93FC01A685B7858D01005C1F4F0F
:10016000E8018881998101968F739927AD014E5BD3
:100170005F4FEA012881398128173907D1F3E80157
:1001800028813981A20FB31F6C93A685B785A05C27
:10019000BF4F11969C938E93A689B7892C9181E0CD
:1001A00090E0078C02C0880F991F0A94E2F7822B17
:1001B0008C9381E081A30488F589E02D808180649F
:1001C000808381E090E0DF91CF911F910F9108959E
:1001D000FC0181A1882329F0A489B5898C9186FF2F
:1001E000FBCF11A20895FC01A485B585FD01E05C5B
:1001F000FF4F208131813296808191812817390704
:1002000079F080819181A80FB91F8C912081318173
:100210002F5F3F4F2F7333273183208390E0089562
:100220008FEF9FEF0895DC011C96ED91FC911D97D7
:10023000DF01A05CBF4F2D913C91119712968D91DB
:100240009C9111972817390739F08D919C91E80FEF
:10025000F91F808190E008958FEF9FEF0895FC01D2
:1002600024853585F901E05CFF4F808191813296CC
:1002700020813181821B930B8F73992708958CE91C
:1002800091E00C942F011F920F920FB60F92112440
:100290002F933F938F939F93AF93BF938091C3010D
:1002A0009091C401A091C501B091C6013091C201E5
:1002B00023E0230F2D3720F40196A11DB11D05C0A9
:1002C00026E8230F0296A11DB11D2093C201809341
:1002D000C3019093C401A093C501B093C60180915E
:1002E000BE019091BF01A091C001B091C1010196E2
:1002F000A11DB11D8093BE019093BF01A093C001C9
:10030000B093C101BF91AF919F918F913F912F9178
:100310000F900FBE0F901F9018951F920F920FB65F
:100320000F9211242F933F938F939F93EF93FF93FB
:1003300020915401309155018091560190915701BF
:100340002817390731F48091C1008F7D8093C10057
:1003500014C0E0915601F0915701EC5EFE4F2081F0
:10036000809156019091570101968F739927909330
:100370005701809356012093C600FF91EF919F9102
:100380008F913F912F910F900FBE0F901F90189556
:100390001F920F920FB60F9211242F934F935F93DA
:1003A0008F939F93EF93FF938091C00082FD1CC0B9
:1003B0002091C600809198019091990140919A01F5
:1003C00050919B0101968F7399274817590771F037
:1003D000E0919801F0919901E85AFE4F20839093A3
:1003E00099018093980102C08091C600FF91EF911E
:1003F0009F918F915F914F912F910F900FBE0F9012
:100400001F901895ECE9F1E01382128288EE93E0D8
:10041000A0E0B0E084839583A683B78384E091E075
:100420009183808388E591E09587848784E191E0DA
:100430009787868785EC90E0918B808B84EC90E0A9
:10044000938B828B80EC90E0958B848B81EC90E099
:10045000978B868B82EC90E0918F808F86EC90E07A
:10046000938F828F84E0848F83E0858F87E0868FEF
:1004700085E0878F81E080A30895789484B58260B9
:1004800084BD84B5816084BD85B5826085BD85B538
:10049000816085BD80916E00816080936E001092B6
:1004A0008100809181008260809381008091810031
:1004B00081608093810080918000816080938000C2
:1004C0008091B10084608093B1008091B000816020
:1004D0008093B00080917A00846080937A0080914C
:1004E0007A00826080937A0080917A0081608093A4
:1004F0007A0080917A00806880937A001092C1001F
:10050000EEE9F0E02491EAE8F0E084918823C1F07C
:1005100090E0880F991FFC01EE58FF4FC591D491D0
:10052000FC01E859FF4FA591B4919FB7F8948881D9
:10053000E22FE0958E2388838C91E823EC939FBF74
:10054000E091B001F091B10181E090E09C01009058
:10055000BC0102C0220F331F0A94E2F72083E0910E
:10056000AC01F091AD011082E091AE01F091AF01CC
:100570002FEC20831092BD01E091B201F091B30104
:1005800040819C010090B80102C0220F331F0A94E1
:10059000E2F7242B2083E091B201F091B301408176
:1005A0009C010090B90102C0220F331F0A94E2F7A8
:1005B000242B2083E091B201F091B30140819C0192
:1005C0000090BA0102C0220F331F0A94E2F7242BD5
:1005D0002083E091B201F091B30120810090BB0132
:1005E00002C0880F991F0A94E2F7809582238083C6
:1005F00010E410937C0080917A00806480937A00EC
:1006000080917A0086FDFCCFC091780080917900BE
:10061000D0E0D82BD0931301C09312018091100128
:10062000909111018C179D0749F06C2F8CE991E096
:100630000E94A600D0931101C09310010E943F01B7
:10064000D8CFF8940C942A03EE0FFF1F0590F49175
:08065000E02D0994F894FFCF9E
:1006580000000000A6007E002F01F3001301E8004F
:00000001FF
