:100000000C945E000C9486000C9486000C94860080
:100010000C9486000C9486000C9486000C94860048
:100020000C9486000C9486000C9486000C94860038
:100030000C9486000C9486000C9486000C94860028
:100040000C9428020C9486000C94AD020C9472025D
:100050000C9486000C9486000C9486000C94860008
:100060000C9486000C9486000000000024002700F9
:100070002A0000000000250028002B0004040404CE
:100080000404040402020202020203030303030342
:10009000010204081020408001020408102001021F
:1000A00004081020000000070002010000030406FD
:1000B0000000000000000000E702760511241FBECA
:1000C000CFEFD8E0DEBFCDBF11E0A0E0B1E0ECE3C0
:1000D000F0E102C005900D92A632B107D9F721E0F8
:1000E000A6E2B1E001C01D92A43EB207E1F710E024
:1000F000CDE5D0E004C02197FE010E940B08CC356D
:10010000D107C9F70E9470030C94A3050C9400005A
:100110000F931F93CF93DF93FC01A685B7858D01C5
:10012000005C1F4FE8018881998101968F739927A0
:10013000AD014E5B5F4FEA012881398128173907ED
:10014000D1F3E80128813981A20FB31F6C93A685F2
:10015000B785A05CBF4F11969C938E93A689B789F3
:100160002C9181E090E0078C02C0880F991F0A94BF
:10017000E2F7822B8C9381E081A30488F589E02D3E
:1001800080818064808381E090E0DF91CF911F9136
:100190000F910895CF93DF936DE087EB91E00E947C
:1001A0008800EC016AE087EB91E00E9488008C0FE8
:1001B0009D1FDF91CF910895FC0181A1882329F033
:1001C000A489B5898C9186FFFBCF11A20895FC010B
:1001D000A485B585FD01E05CFF4F20813181329619
:1001E000808191812817390779F080819181A80F4A
:1001F000B91F8C91208131812F5F3F4F2F7333279F
:100200003183208390E008958FEF9FEF0895DC0104
:100210001C96ED91FC911D97DF01A05CBF4F2D91C5
:100220003C91119712968D919C911197281739073F
:1002300039F08D919C91E80FF91F808190E008952D
:100240008FEF9FEF0895FC0124853585F901E05C6F
:10025000FF4F80819181329620813181821B930BE7
:100260008F739927089587EB91E00C9423010895EB
:10027000CF92DF92EF92FF920F931F93CF93DF9372
:100280006C01EB017B01E40EF51E00E010E0CE15E1
:10029000DF0561F06991D601ED91FC910190F0814B
:1002A000E02DC6010995080F191FF1CFC801DF9194
:1002B000CF911F910F91FF90EF90DF90CF90089515
:1002C00090E0FC01EC55FF4F2491FC01E057FF4FFB
:1002D0003491FC01E458FF4FE491EE2309F43CC053
:1002E000222339F1233091F038F42130A9F0223063
:1002F00001F584B58F7D12C0263091F02730A1F032
:100300002430B9F4809180008F7D03C080918000FB
:100310008F77809380000DC084B58F7784BD09C02E
:100320008091B0008F7703C08091B0008F7D809363
:10033000B000F0E0EE0FFF1FEE58FF4FA591B49113
:100340009FB7F894611104C08C913095382302C096
:10035000EC913E2B3C939FBF0895CF93DF9390E0A9
:10036000FC01E057FF4F2491FC01E458FF4F8491BA
:10037000882361F190E0880F991FFC01E859FF4F35
:10038000C591D491FC01EE58FF4FA591B491611134
:1003900009C09FB7F8948881209582238883EC91C7
:1003A0002E230BC0623061F49FB7F8948881322FFE
:1003B000309583238883EC912E2B2C939FBF06C00E
:1003C0008FB7F894E8812E2B28838FBFDF91CF91D0
:1003D0000895009769F0FC0101900020E9F731973A
:1003E000AF01481B590BBC0187EB91E00C9438011D
:1003F00080E090E00895CF93DF93EC018091D901E4
:100400009091DA01009739F02091DB013091DC0105
:100410002C173D07B8F4BE016F5F7F4F0E94DC06CA
:10042000009791F09093DA018093D901D093DC0189
:10043000C093DB012091DD013091DE01232B11F40B
:10044000FC01108281E001C080E0DF91CF9108952E
:100450001F920F920FB60F9211242F933F938F93F9
:100460009F93AF93BF9380912B0190912C01A0910A
:100470002D01B0912E0130912A0123E0230F2D3759
:1004800020F40196A11DB11D05C026E8230F029698
:10049000A11DB11D20932A0180932B0190932C0163
:1004A000A0932D01B0932E018091260190912701F8
:1004B000A0912801B09129010196A11DB11D809341
:1004C000260190932701A0932801B0932901BF91A1
:1004D000AF919F918F913F912F910F900FBE0F90F1
:1004E0001F9018951F920F920FB60F9211242F9301
:1004F0003F938F939F93EF93FF9320916F013091E0
:10050000700180917101909172012817390731F4BF
:100510008091C1008F7D8093C10014C0E091710172
:10052000F0917201E15DFE4F208180917101909107
:10053000720101968F7399279093720180937101D4
:100540002093C600FF91EF919F918F913F912F9142
:100550000F900FBE0F901F9018951F920F920FB61D
:100560000F9211242F934F935F938F939F93EF9349
:10057000FF938091C00082FD1CC02091C600809135
:10058000B3019091B4014091B5015091B60101962B
:100590008F7399274817590771F0E091B301F091D3
:1005A000B401ED58FE4F20839093B4018093B301C2
:1005B00002C08091C600FF91EF919F918F915F9152
:1005C0004F912F910F900FBE0F901F901895109282
:1005D000BA011092B90188EE93E0A0E0B0E08093F8
:1005E000BB019093BC01A093BD01B093BE018AE012
:1005F00091E09093B8018093B70183E791E09093E5
:10060000C4018093C3018FE291E09093C60180936F
:10061000C50185EC90E09093C8018093C70184ECFC
:1006200090E09093CA018093C90180EC90E0909390
:10063000CC018093CB0181EC90E09093CE0180932C
:10064000CD0182EC90E09093D0018093CF0186ECB5
:1006500090E09093D2018093D10184E08093D30104
:1006600083E08093D40187E08093D50185E0809377
:10067000D60181E08093D7011092DA011092D9015E
:100680001092DC011092DB011092DE011092DD016C
:100690001092DF0180E090E00E94FB012091D901DF
:1006A0003091DA01811113C02115310519F0C9010A
:1006B0000E9453061092DA011092D9011092DE01C5
:1006C0001092DD011092DC011092DB01089510926E
:1006D000DE011092DD0165E271E0C9010C94AB0707
:1006E000CF93DF93CDB7DEB7A1970FB6F894DEBFF7
:1006F0000FBECDBF789484B5826084BD84B581601F
:1007000084BD85B5826085BD85B5816085BD8091DC
:100710006E00816080936E00109281008091810054
:10072000826080938100809181008160809381004C
:10073000809180008160809380008091B10084600E
:100740008093B1008091B00081608093B00080916F
:100750007A00846080937A0080917A00826080932E
:100760007A0080917A00816080937A0080917A008B
:10077000806880937A001092C10060E08EE00E9451
:10078000AD0161E08BE00E94AD01E091CB01F09101
:10079000CC0181E090E09C010090D70102C0220FC3
:1007A000331F0A94E2F72083E091C701F091C8015A
:1007B0001082E091C901F091CA012FEC20831092C0
:1007C000D801E091CD01F091CE0140819C010090D3
:1007D000D30102C0220F331F0A94E2F7242B208397
:1007E000E091CD01F091CE0140819C010090D401B7
:1007F00002C0220F331F0A94E2F7242B2083E091DA
:10080000CD01F091CE0140819C010090D50102C044
:10081000220F331F0A94E2F7242B2083E091CD01AD
:10082000F091CE0120810090D60102C0880F991F5F
:100830000A94E2F78095822380838AE0882E912CA7
:10084000A12CB12C0FEA10E087EB91E00E9423016C
:10085000181619060CF047C187EB91E00E94E700DB
:100860009C01205331092A30310510F589831A8201
:10087000E090DD01F090DE012FEFE21AF20AC701ED
:100880000E94FB01882301F32091D9013091DA0104
:100890008091DD019091DE01BE016F5F7F4F820F7D
:1008A000931F0E94AB07F092DE01E092DD01CCCFF6
:1008B0000A9751F686E191E00E94E9018091D90101
:1008C0009091DA01009791F10E947C056B017C0107
:1008D00097FF2FC06DE287EB91E00E9488004424CF
:1008E000552432014C185D086E087F0819A2CE010C
:1008F00081967C01C301B201A50194010E94B20757
:10090000842D9AE0299F80191124E1E0EE1AF10864
:100910008A3014F4805D01C0895CF701808329016D
:100920003A01232B242B252B29F726C0C12CD12CAF
:1009300076017C2C7D2DC70119A29E012F5D3F4FB2
:100940007901672DA50194010E94B207872D9AE0D5
:10095000299F80191124E1E0EE1AF1088A3014F47D
:10096000805D01C0895CF7018083722E732FCA01FC
:10097000232B242B252B29F7C7010E94E9010E9474
:10098000CA008DE191E00E94E901E12CF12C8091F7
:10099000DD019091DE01E816F906A0F48091D901FD
:1009A0009091DA01009729F0FC01EE0DFF1D6081A6
:1009B00001C060E087EB91E00E948800FFEFEF1A32
:1009C000FF0AE5CF0E94CA008091D9019091DA0117
:1009D000009729F00E947C05F62EE72E02C0F12C2C
:1009E000E12CCF2CDE2C61E08BE00E94AD01C11424
:1009F000D10411F460E005C02FEFC216D10429F430
:100A000061E08BE00E94600147C0F801849183306F
:100A100009F148F48130C9F08230C1F584B58062B3
:100A200084BDF8BC39C0863009F1873039F1843093
:100A300069F5809180008062809380008F2D9E2DCB
:100A400090938B0080938A0027C084B5806884BD12
:100A5000F7BC22C0809180008068809380008F2D39
:100A60009E2D909389008093880016C08091B000DD
:100A700080688093B000F092B3000EC08091B00007
:100A800080628093B000F092B40006C0F0E8CF1608
:100A9000D1040CF0B5CFAECF80E090E00E94FB0116
:100AA0002091D9013091DA01811113C0211531054E
:100AB00019F0C9010E9453061092DA011092D9016F
:100AC0001092DE011092DD011092DC011092DB0128
:100AD000BBCE1092DE011092DD0165E271E0C9012A
:100AE0000E94AB07B1CE0E943301AECE8091D901F6
:100AF0009091DA010C9453061F93FC0199278827E3
:100B0000BC01E89411911032E9F3193010F01E3055
:100B1000C8F31B3251F01D3249F4689406C00E949C
:100B2000A605610F711D811D911D119110531A3081
:100B3000B0F33EF490958095709561957F4F8F4FFF
:100B40009F4F1F910895F8940C941108592F482F26
:100B5000372F262F660F771F881F991F660F771F65
:100B6000881F991F620F731F841F951F660F771FC1
:100B7000881F991F08950F931F93CF93DF9382309F
:100B8000910510F482E090E0E091E201F091E30140
:100B900020E030E0A0E0B0E0309719F140815181D1
:100BA0000281138148175907C8F08417950769F423
:100BB000109731F012960C93129713961C9327C03E
:100BC0000093E2011093E30122C02115310519F0D1
:100BD0004217530718F49A01BD01EF01DF01F80134
:100BE000DBCF21153105F9F0281B390B24303105F5
:100BF00080F48A819B816115710521F0FB0193834B
:100C0000828304C09093E3018093E201FE01329657
:100C100044C0FE01E20FF31F8193919322503109EA
:100C2000398328833AC02091E0013091E101232BE0
:100C300041F420910201309103013093E1012093AE
:100C4000E00120910001309101012115310541F4AD
:100C50002DB73EB74091040150910501241B350B7F
:100C6000E091E001F091E101E217F307A0F42E1BFF
:100C70003F0B2817390778F0AC014E5F5F4F241700
:100C8000350748F04E0F5F1F5093E1014093E0019C
:100C90008193919302C0E0E0F0E0CF01DF91CF912A
:100CA0001F910F910895CF93DF93009709F481C0AE
:100CB000FC01329713821282A091E201B091E3010C
:100CC000109781F420813181820F931F2091E001E0
:100CD0003091E1012817390751F5F093E101E093D4
:100CE000E00167C0ED0120E030E0CE17DF0740F4FF
:100CF0004A815B819E0141155105F1F0EA01F5CF72
:100D0000D383C28340815181840F951FC817D907AF
:100D100059F488819981840F951F0296918380836D
:100D20008A819B81938382832115310529F4F09375
:100D3000E301E093E2013DC0E901FB83EA834991CD
:100D40005991C40FD51FEC17FD0761F48081918183
:100D5000840F951F0296E90199838883828193818C
:100D60009B838A83E0E0F0E012968D919C9113972B
:100D7000009719F0FD01DC01F7CF8D919C9111973F
:100D80009D012E5F3F4F820F931F2091E001309114
:100D9000E1012817390769F4309729F41092E3012B
:100DA0001092E20102C013821282B093E101A0937B
:100DB000E001DF91CF910895A0E0B0E0E2EEF6E02F
:100DC0000C94D807EC01009721F4CB010E94BB05DD
:100DD000B4C0FC01E60FF71F9C0122503109E21755
:100DE000F30708F4A8C0D9010D911C9111970617BB
:100DF0001707B0F00530110508F49BC0C80104972F
:100E00008617970708F495C002501109061B170BA7
:100E1000019311936D937C93CF010E94530689C077
:100E20005B01A01AB10A4C01800E911EA091E20153
:100E3000B091E301612C712CE12CF12C109709F495
:100E400046C08D919C911197A815B905B1F56C011B
:100E500042E0C40ED11CCA14DB0478F14C018A189C
:100E60009B08640142E0C40ED11C1296BC901297FC
:100E70001396AC91B5E0CB16D10440F0B282A383B7
:100E800091828082D9016D937C9309C00E5F1F4FC0
:100E9000800F911FF90191838083EB2DFA2FE114CC
:100EA000F10431F0D7011396FC93EE93129741C0F1
:100EB000F093E301E093E2013CC06816790608F480
:100EC0003C017D0112960D90BC91A02DB7CF809171
:100ED000E0019091E10188169906E1F46616770623
:100EE000C8F48091000190910101009741F48DB701
:100EF0009EB74091040150910501841B950BE817A2
:100F0000F907C8F4F093E101E093E001F90171837E
:100F100060830FC0CB010E94BB057C01009759F094
:100F2000A801BE010E94A207CE010E945306C7017C
:100F300004C0CE0102C080E090E0CDB7DEB7EEE0A5
:100F40000C94F407FB01DC0102C001900D924150AA
:100F50005040D8F70895FB01DC0101900D9200206C
:100F6000E1F70895A1E21A2EAA1BBB1BFD010DC0DB
:100F7000AA1FBB1FEE1FFF1FA217B307E407F50749
:100F800020F0A21BB30BE40BF50B661F771F881F25
:100F9000991F1A9469F760957095809590959B01BB
:100FA000AC01BD01CF0108952F923F924F925F9205
:100FB0006F927F928F929F92AF92BF92CF92DF9269
:100FC000EF92FF920F931F93CF93DF93CDB7DEB7CE
:100FD000CA1BDB0B0FB6F894DEBF0FBECDBF099462
:100FE0002A88398848885F846E847D848C849B84B9
:100FF000AA84B984C884DF80EE80FD800C811B81C7
:10100000AA81B981CE0FD11D0FB6F894DEBF0FBEF5
:10101000CDBFED010895EE0FFF1F0590F491E02D77
:10102000099410E0CDE5D0E004C0FE010E940B0859
:0C1030002196CE35D107C9F7F894FFCF08
:10103C000000E401200000000000880038012301BA
:10104C00E7000701DC0056616C75653A0053747259
:06105C00696E673A2000F6
:00000001FF
